{
  "contractName": "Swap",
  "abi": [
    {
      "anonymous": false,
      "inputs": [
        {
          "indexed": true,
          "internalType": "address",
          "name": "swapper",
          "type": "address"
        },
        {
          "indexed": false,
          "internalType": "uint256",
          "name": "timestamp",
          "type": "uint256"
        }
      ],
      "name": "Swapped",
      "type": "event"
    },
    {
      "anonymous": false,
      "inputs": [
        {
          "indexed": true,
          "internalType": "address",
          "name": "swapper",
          "type": "address"
        },
        {
          "indexed": false,
          "internalType": "uint256",
          "name": "timestamp",
          "type": "uint256"
        }
      ],
      "name": "Withdraw",
      "type": "event"
    },
    {
      "stateMutability": "payable",
      "type": "receive"
    },
    {
      "inputs": [
        {
          "internalType": "address",
          "name": "_tokenAddress",
          "type": "address"
        },
        {
          "internalType": "uint256",
          "name": "_amount",
          "type": "uint256"
        }
      ],
      "name": "swap",
      "outputs": [],
      "stateMutability": "payable",
      "type": "function"
    },
    {
      "inputs": [],
      "name": "getTotalBalance",
      "outputs": [
        {
          "internalType": "uint256",
          "name": "",
          "type": "uint256"
        }
      ],
      "stateMutability": "view",
      "type": "function"
    },
    {
      "inputs": [],
      "name": "getBalance",
      "outputs": [
        {
          "internalType": "uint256",
          "name": "",
          "type": "uint256"
        }
      ],
      "stateMutability": "view",
      "type": "function"
    },
    {
      "inputs": [],
      "name": "withdrawBalance",
      "outputs": [],
      "stateMutability": "nonpayable",
      "type": "function"
    }
  ],
  "bytecode": "0x6080604052737a250d5630b4cf539739df2c5dacb4c659f2488d6000806101000a81548173ffffffffffffffffffffffffffffffffffffffff021916908373ffffffffffffffffffffffffffffffffffffffff16021790555034801561006457600080fd5b50611099806100746000396000f3fe6080604052600436106100435760003560e01c806312065fe01461004f57806312b583491461007a5780635fd8c710146100a5578063d004f0f7146100bc5761004a565b3661004a57005b600080fd5b34801561005b57600080fd5b506100646100d8565b6040516100719190610d0c565b60405180910390f35b34801561008657600080fd5b5061008f61011f565b60405161009c9190610d0c565b60405180910390f35b3480156100b157600080fd5b506100ba610127565b005b6100d660048036038101906100d19190610a10565b61033e565b005b6000600160003373ffffffffffffffffffffffffffffffffffffffff1673ffffffffffffffffffffffffffffffffffffffff16815260200190815260200160002054905090565b600047905090565b600260003373ffffffffffffffffffffffffffffffffffffffff1673ffffffffffffffffffffffffffffffffffffffff16815260200190815260200160002060009054906101000a900460ff166101b3576040517f08c379a00000000000000000000000000000000000000000000000000000000081526004016101aa90610ccc565b60405180910390fd5b60003373ffffffffffffffffffffffffffffffffffffffff16600160003373ffffffffffffffffffffffffffffffffffffffff1673ffffffffffffffffffffffffffffffffffffffff1681526020019081526020016000205460405161021890610c17565b60006040518083038185875af1925050503d8060008114610255576040519150601f19603f3d011682016040523d82523d6000602084013e61025a565b606091505b505090508061029e576040517f08c379a000000000000000000000000000000000000000000000000000000000815260040161029590610cec565b60405180910390fd5b6000600160003373ffffffffffffffffffffffffffffffffffffffff1673ffffffffffffffffffffffffffffffffffffffff168152602001908152602001600020819055506000600260003373ffffffffffffffffffffffffffffffffffffffff1673ffffffffffffffffffffffffffffffffffffffff16815260200190815260200160002060006101000a81548160ff02191690831515021790555050565b8173ffffffffffffffffffffffffffffffffffffffff166323b872dd3330846040518463ffffffff1660e01b815260040161037b93929190610c2c565b602060405180830381600087803b15801561039557600080fd5b505af11580156103a9573d6000803e3d6000fd5b505050506040513d601f19601f820116820180604052508101906103cd9190610a8d565b61040c576040517f08c379a000000000000000000000000000000000000000000000000000000000815260040161040390610cac565b60405180910390fd5b8173ffffffffffffffffffffffffffffffffffffffff1663095ea7b3737a250d5630b4cf539739df2c5dacb4c659f2488d836040518363ffffffff1660e01b815260040161045b929190610c63565b602060405180830381600087803b15801561047557600080fd5b505af1158015610489573d6000803e3d6000fd5b505050506040513d601f19601f820116820180604052508101906104ad9190610a8d565b6104ec576040517f08c379a00000000000000000000000000000000000000000000000000000000081526004016104e390610c8c565b60405180910390fd5b6000600267ffffffffffffffff81111561052f577f4e487b7100000000000000000000000000000000000000000000000000000000600052604160045260246000fd5b60405190808252806020026020018201604052801561055d5781602001602082028036833780820191505090505b509050828160008151811061059b577f4e487b7100000000000000000000000000000000000000000000000000000000600052603260045260246000fd5b602002602001019073ffffffffffffffffffffffffffffffffffffffff16908173ffffffffffffffffffffffffffffffffffffffff168152505060008054906101000a900473ffffffffffffffffffffffffffffffffffffffff1673ffffffffffffffffffffffffffffffffffffffff1663ad5c46486040518163ffffffff1660e01b815260040160206040518083038186803b15801561063b57600080fd5b505afa15801561064f573d6000803e3d6000fd5b505050506040513d601f19601f8201168201806040525081019061067391906109e7565b816001815181106106ad577f4e487b7100000000000000000000000000000000000000000000000000000000600052603260045260246000fd5b602002602001019073ffffffffffffffffffffffffffffffffffffffff16908173ffffffffffffffffffffffffffffffffffffffff168152505060008060009054906101000a900473ffffffffffffffffffffffffffffffffffffffff1673ffffffffffffffffffffffffffffffffffffffff166318cbafe58460018530426040518663ffffffff1660e01b815260040161074c959493929190610d27565b600060405180830381600087803b15801561076657600080fd5b505af115801561077a573d6000803e3d6000fd5b505050506040513d6000823e3d601f19601f820116820180604052508101906107a39190610a4c565b9050806001815181106107df577f4e487b7100000000000000000000000000000000000000000000000000000000600052603260045260246000fd5b6020026020010151600160003373ffffffffffffffffffffffffffffffffffffffff1673ffffffffffffffffffffffffffffffffffffffff16815260200190815260200160002060008282546108359190610e27565b925050819055506001600260003373ffffffffffffffffffffffffffffffffffffffff1673ffffffffffffffffffffffffffffffffffffffff16815260200190815260200160002060006101000a81548160ff0219169083151502179055503373ffffffffffffffffffffffffffffffffffffffff167fcdee897399ab5e465acb1bd3ed5e32c695f196321764546c59720fa6c9ce4c69426040516108da9190610d0c565b60405180910390a250505050565b60006108fb6108f684610da6565b610d81565b9050808382526020820190508285602086028201111561091a57600080fd5b60005b8581101561094a578161093088826109d2565b84526020840193506020830192505060018101905061091d565b5050509392505050565b6000813590506109638161101e565b92915050565b6000815190506109788161101e565b92915050565b600082601f83011261098f57600080fd5b815161099f8482602086016108e8565b91505092915050565b6000815190506109b781611035565b92915050565b6000813590506109cc8161104c565b92915050565b6000815190506109e18161104c565b92915050565b6000602082840312156109f957600080fd5b6000610a0784828501610969565b91505092915050565b60008060408385031215610a2357600080fd5b6000610a3185828601610954565b9250506020610a42858286016109bd565b9150509250929050565b600060208284031215610a5e57600080fd5b600082015167ffffffffffffffff811115610a7857600080fd5b610a848482850161097e565b91505092915050565b600060208284031215610a9f57600080fd5b6000610aad848285016109a8565b91505092915050565b6000610ac28383610ace565b60208301905092915050565b610ad781610e7d565b82525050565b610ae681610e7d565b82525050565b6000610af782610de2565b610b018185610dfa565b9350610b0c83610dd2565b8060005b83811015610b3d578151610b248882610ab6565b9750610b2f83610ded565b925050600181019050610b10565b5085935050505092915050565b610b5381610ec5565b82525050565b6000610b66600e83610e16565b9150610b7182610f77565b602082019050919050565b6000610b89601383610e16565b9150610b9482610fa0565b602082019050919050565b6000610bac601c83610e16565b9150610bb782610fc9565b602082019050919050565b6000610bcf600083610e0b565b9150610bda82610ff2565b600082019050919050565b6000610bf2600f83610e16565b9150610bfd82610ff5565b602082019050919050565b610c1181610ebb565b82525050565b6000610c2282610bc2565b9150819050919050565b6000606082019050610c416000830186610add565b610c4e6020830185610add565b610c5b6040830184610c08565b949350505050565b6000604082019050610c786000830185610add565b610c856020830184610c08565b9392505050565b60006020820190508181036000830152610ca581610b59565b9050919050565b60006020820190508181036000830152610cc581610b7c565b9050919050565b60006020820190508181036000830152610ce581610b9f565b9050919050565b60006020820190508181036000830152610d0581610be5565b9050919050565b6000602082019050610d216000830184610c08565b92915050565b600060a082019050610d3c6000830188610c08565b610d496020830187610b4a565b8181036040830152610d5b8186610aec565b9050610d6a6060830185610add565b610d776080830184610c08565b9695505050505050565b6000610d8b610d9c565b9050610d978282610ed7565b919050565b6000604051905090565b600067ffffffffffffffff821115610dc157610dc0610f37565b5b602082029050602081019050919050565b6000819050602082019050919050565b600081519050919050565b6000602082019050919050565b600082825260208201905092915050565b600081905092915050565b600082825260208201905092915050565b6000610e3282610ebb565b9150610e3d83610ebb565b9250827fffffffffffffffffffffffffffffffffffffffffffffffffffffffffffffffff03821115610e7257610e71610f08565b5b828201905092915050565b6000610e8882610e9b565b9050919050565b60008115159050919050565b600073ffffffffffffffffffffffffffffffffffffffff82169050919050565b6000819050919050565b6000610ed082610ebb565b9050919050565b610ee082610f66565b810181811067ffffffffffffffff82111715610eff57610efe610f37565b5b80604052505050565b7f4e487b7100000000000000000000000000000000000000000000000000000000600052601160045260246000fd5b7f4e487b7100000000000000000000000000000000000000000000000000000000600052604160045260246000fd5b6000601f19601f8301169050919050565b7f617070726f7665206661696c6564000000000000000000000000000000000000600082015250565b7f7472616e7366657246726f6d206661696c656400000000000000000000000000600082015250565b7f796f7520646f206e6f74206861766520616e79206465706f7369747300000000600082015250565b50565b7f7769746864726177206661696c65640000000000000000000000000000000000600082015250565b61102781610e7d565b811461103257600080fd5b50565b61103e81610e8f565b811461104957600080fd5b50565b61105581610ebb565b811461106057600080fd5b5056fea2646970667358221220beebcb69b9ae933e931f101000dfdfd5f5972b2cc70002396fde55646be2b3fe64736f6c63430008040033",
  "immutableReferences": {},
  "source": "//SPDX-License-Identifier: MIT \npragma solidity ^0.8;\n\nimport \"./IERC20.sol\";\nimport \"./RouterInterface.sol\";\n\ncontract Swap {\n    address constant ROUTER_ADDRESS = 0x7a250d5630B4cF539739dF2C5dAcb4c659F2488D;\n    IUniswapV2Router01 router = IUniswapV2Router01(ROUTER_ADDRESS);\n    \n    mapping (address => uint) deposits;\n    mapping (address => bool) depositers;\n    \n    event Swapped(address indexed swapper, uint timestamp);\n    event Withdraw(address indexed swapper, uint timestamp);\n    \n    function swap(address _tokenAddress, uint _amount) external payable {\n        require(IERC20(_tokenAddress).transferFrom(msg.sender, address(this), _amount), \"transferFrom failed\");\n        require(IERC20(_tokenAddress).approve(ROUTER_ADDRESS, _amount), 'approve failed');\n        address[] memory path = new address[](2);\n        path[0] = _tokenAddress;\n        path[1] = router.WETH();\n        uint[] memory amounts = router.swapExactTokensForETH(_amount, 1, path, address(this), block.timestamp);\n        deposits[msg.sender] += amounts[1];\n        depositers[msg.sender] = true;\n        emit Swapped(msg.sender, block.timestamp);\n    }\n    \n    receive() external payable {}\n    \n    function getTotalBalance() external view returns (uint) {\n        return address(this).balance;\n    }\n    \n    function getBalance() external view returns (uint) {\n        return deposits[msg.sender];\n    }\n    \n    function withdrawBalance() external {\n        require(depositers[msg.sender], \"you do not have any deposits\");\n        (bool success, ) = msg.sender.call{value: deposits[msg.sender]}(\"\");\n        require(success, \"withdraw failed\");\n        deposits[msg.sender] = 0;\n        depositers[msg.sender] = false;\n    }\n}",
  "sourcePath": "/home/yash/temp/contracts/Swap.sol",
  "compiler": {
    "name": "solc",
    "version": "0.8.4+commit.c7e474f2.Emscripten.clang"
  },
  "schemaVersion": "3.3.4",
  "updatedAt": "2021-05-11T16:19:10.109Z",
  "devdoc": {
    "kind": "dev",
    "methods": {},
    "version": 1
  },
  "userdoc": {
    "kind": "user",
    "methods": {},
    "version": 1
  }
}